{
  "contractName": "AuctionRepository",
  "abi": [
    {
      "anonymous": false,
      "inputs": [
        {
          "indexed": false,
          "internalType": "address",
          "name": "_owner",
          "type": "address"
        },
        {
          "indexed": false,
          "internalType": "uint256",
          "name": "_auctionId",
          "type": "uint256"
        }
      ],
      "name": "AuctionCanceled",
      "type": "event"
    },
    {
      "anonymous": false,
      "inputs": [
        {
          "indexed": false,
          "internalType": "address",
          "name": "_owner",
          "type": "address"
        },
        {
          "indexed": false,
          "internalType": "uint256",
          "name": "_auctionId",
          "type": "uint256"
        }
      ],
      "name": "AuctionCreated",
      "type": "event"
    },
    {
      "anonymous": false,
      "inputs": [
        {
          "indexed": false,
          "internalType": "address",
          "name": "_owner",
          "type": "address"
        },
        {
          "indexed": false,
          "internalType": "uint256",
          "name": "_auctionId",
          "type": "uint256"
        }
      ],
      "name": "AuctionFinalized",
      "type": "event"
    },
    {
      "anonymous": false,
      "inputs": [
        {
          "indexed": false,
          "internalType": "address",
          "name": "_from",
          "type": "address"
        },
        {
          "indexed": false,
          "internalType": "uint256",
          "name": "_auctionId",
          "type": "uint256"
        }
      ],
      "name": "BidSuccess",
      "type": "event"
    },
    {
      "inputs": [
        {
          "internalType": "uint256",
          "name": "",
          "type": "uint256"
        },
        {
          "internalType": "uint256",
          "name": "",
          "type": "uint256"
        }
      ],
      "name": "auctionBids",
      "outputs": [
        {
          "internalType": "address payable",
          "name": "from",
          "type": "address"
        },
        {
          "internalType": "uint256",
          "name": "amount",
          "type": "uint256"
        }
      ],
      "stateMutability": "view",
      "type": "function"
    },
    {
      "inputs": [
        {
          "internalType": "address",
          "name": "",
          "type": "address"
        },
        {
          "internalType": "uint256",
          "name": "",
          "type": "uint256"
        }
      ],
      "name": "auctionOwner",
      "outputs": [
        {
          "internalType": "uint256",
          "name": "",
          "type": "uint256"
        }
      ],
      "stateMutability": "view",
      "type": "function"
    },
    {
      "inputs": [
        {
          "internalType": "uint256",
          "name": "",
          "type": "uint256"
        }
      ],
      "name": "auctions",
      "outputs": [
        {
          "internalType": "string",
          "name": "name",
          "type": "string"
        },
        {
          "internalType": "uint256",
          "name": "blockDeadline",
          "type": "uint256"
        },
        {
          "internalType": "uint256",
          "name": "startPrice",
          "type": "uint256"
        },
        {
          "internalType": "string",
          "name": "metadata",
          "type": "string"
        },
        {
          "internalType": "uint256",
          "name": "deedId",
          "type": "uint256"
        },
        {
          "internalType": "address",
          "name": "deedRepositoryAddress",
          "type": "address"
        },
        {
          "internalType": "address payable",
          "name": "owner",
          "type": "address"
        },
        {
          "internalType": "bool",
          "name": "active",
          "type": "bool"
        },
        {
          "internalType": "bool",
          "name": "finalized",
          "type": "bool"
        }
      ],
      "stateMutability": "view",
      "type": "function"
    },
    {
      "inputs": [],
      "name": "getCount",
      "outputs": [
        {
          "internalType": "uint256",
          "name": "",
          "type": "uint256"
        }
      ],
      "stateMutability": "view",
      "type": "function"
    },
    {
      "inputs": [
        {
          "internalType": "uint256",
          "name": "_auctionId",
          "type": "uint256"
        }
      ],
      "name": "getBidsCount",
      "outputs": [
        {
          "internalType": "uint256",
          "name": "",
          "type": "uint256"
        }
      ],
      "stateMutability": "view",
      "type": "function"
    },
    {
      "inputs": [
        {
          "internalType": "address",
          "name": "_owner",
          "type": "address"
        }
      ],
      "name": "getAuctionsOf",
      "outputs": [
        {
          "internalType": "uint256[]",
          "name": "",
          "type": "uint256[]"
        }
      ],
      "stateMutability": "view",
      "type": "function"
    },
    {
      "inputs": [
        {
          "internalType": "uint256",
          "name": "_auctionId",
          "type": "uint256"
        }
      ],
      "name": "getCurrentBid",
      "outputs": [
        {
          "internalType": "uint256",
          "name": "",
          "type": "uint256"
        },
        {
          "internalType": "address",
          "name": "",
          "type": "address"
        }
      ],
      "stateMutability": "view",
      "type": "function"
    },
    {
      "inputs": [
        {
          "internalType": "address",
          "name": "_owner",
          "type": "address"
        }
      ],
      "name": "getAuctionsCountOfOwner",
      "outputs": [
        {
          "internalType": "uint256",
          "name": "",
          "type": "uint256"
        }
      ],
      "stateMutability": "view",
      "type": "function"
    },
    {
      "inputs": [
        {
          "internalType": "uint256",
          "name": "_auctionId",
          "type": "uint256"
        }
      ],
      "name": "getAuctionById",
      "outputs": [
        {
          "components": [
            {
              "internalType": "string",
              "name": "name",
              "type": "string"
            },
            {
              "internalType": "uint256",
              "name": "blockDeadline",
              "type": "uint256"
            },
            {
              "internalType": "uint256",
              "name": "startPrice",
              "type": "uint256"
            },
            {
              "internalType": "string",
              "name": "metadata",
              "type": "string"
            },
            {
              "internalType": "uint256",
              "name": "deedId",
              "type": "uint256"
            },
            {
              "internalType": "address",
              "name": "deedRepositoryAddress",
              "type": "address"
            },
            {
              "internalType": "address payable",
              "name": "owner",
              "type": "address"
            },
            {
              "internalType": "bool",
              "name": "active",
              "type": "bool"
            },
            {
              "internalType": "bool",
              "name": "finalized",
              "type": "bool"
            }
          ],
          "internalType": "struct AuctionRepository.Auction",
          "name": "",
          "type": "tuple"
        }
      ],
      "stateMutability": "view",
      "type": "function"
    },
    {
      "inputs": [
        {
          "components": [
            {
              "internalType": "string",
              "name": "name",
              "type": "string"
            },
            {
              "internalType": "uint256",
              "name": "blockDeadline",
              "type": "uint256"
            },
            {
              "internalType": "uint256",
              "name": "startPrice",
              "type": "uint256"
            },
            {
              "internalType": "string",
              "name": "metadata",
              "type": "string"
            },
            {
              "internalType": "uint256",
              "name": "deedId",
              "type": "uint256"
            },
            {
              "internalType": "address",
              "name": "deedRepositoryAddress",
              "type": "address"
            },
            {
              "internalType": "address payable",
              "name": "owner",
              "type": "address"
            },
            {
              "internalType": "bool",
              "name": "active",
              "type": "bool"
            },
            {
              "internalType": "bool",
              "name": "finalized",
              "type": "bool"
            }
          ],
          "internalType": "struct AuctionRepository.Auction",
          "name": "auction",
          "type": "tuple"
        }
      ],
      "name": "createAuction",
      "outputs": [
        {
          "internalType": "bool",
          "name": "",
          "type": "bool"
        }
      ],
      "stateMutability": "nonpayable",
      "type": "function"
    },
    {
      "inputs": [
        {
          "internalType": "uint256",
          "name": "_auctionId",
          "type": "uint256"
        }
      ],
      "name": "cancelAuction",
      "outputs": [],
      "stateMutability": "nonpayable",
      "type": "function"
    },
    {
      "inputs": [
        {
          "internalType": "uint256",
          "name": "_auctionId",
          "type": "uint256"
        }
      ],
      "name": "finalizeAuction",
      "outputs": [],
      "stateMutability": "nonpayable",
      "type": "function"
    },
    {
      "inputs": [
        {
          "internalType": "uint256",
          "name": "_auctionId",
          "type": "uint256"
        }
      ],
      "name": "bidOnAuction",
      "outputs": [],
      "stateMutability": "payable",
      "type": "function"
    }
  ],
  "bytecode": "0x608060405234801561001057600080fd5b50612802806100206000396000f3fe6080604052600436106100c25760003560e01c806396b5a7551161007f578063c8756cda11610059578063c8756cda146102ae578063d56aa558146102eb578063da4e364f14610328578063e808386314610366576100c2565b806396b5a7551461021d578063a87d942c14610246578063b1b61bfa14610271576100c2565b806318111ada146100c757806326b7aeea146101045780634008f9c0146101205780634f76b1401461015d578063571a26a01461019a5780635f93de49146101df575b600080fd5b3480156100d357600080fd5b506100ee60048036038101906100e99190611dac565b61038f565b6040516100fb9190611fca565b60405180910390f35b61011e60048036038101906101199190611dac565b6105f5565b005b34801561012c57600080fd5b5061014760048036038101906101429190611dac565b610aff565b6040516101549190611ffb565b60405180910390f35b34801561016957600080fd5b50610184600480360381019061017f91906122f1565b610b1f565b6040516101919190612349565b60405180910390f35b3480156101a657600080fd5b506101c160048036038101906101bc9190611dac565b610df1565b6040516101d6999897969594939291906123cc565b60405180910390f35b3480156101eb57600080fd5b5061020660048036038101906102019190612467565b610fb9565b6040516102149291906124a7565b60405180910390f35b34801561022957600080fd5b50610244600480360381019061023f9190611dac565b61101a565b005b34801561025257600080fd5b5061025b6114a1565b6040516102689190611ffb565b60405180910390f35b34801561027d57600080fd5b50610298600480360381019061029391906124d0565b6114ad565b6040516102a591906125ac565b60405180910390f35b3480156102ba57600080fd5b506102d560048036038101906102d091906125ce565b61154a565b6040516102e29190611ffb565b60405180910390f35b3480156102f757600080fd5b50610312600480360381019061030d91906124d0565b61157b565b60405161031f9190611ffb565b60405180910390f35b34801561033457600080fd5b5061034f600480360381019061034a9190611dac565b6115c7565b60405161035d92919061260e565b60405180910390f35b34801561037257600080fd5b5061038d60048036038101906103889190611dac565b6116bf565b005b610397611c13565b60008083815481106103ac576103ab612637565b5b9060005260206000209060070201604051806101200160405290816000820180546103d690612695565b80601f016020809104026020016040519081016040528092919081815260200182805461040290612695565b801561044f5780601f106104245761010080835404028352916020019161044f565b820191906000526020600020905b81548152906001019060200180831161043257829003601f168201915b50505050508152602001600182015481526020016002820154815260200160038201805461047c90612695565b80601f01602080910402602001604051908101604052809291908181526020018280546104a890612695565b80156104f55780601f106104ca576101008083540402835291602001916104f5565b820191906000526020600020905b8154815290600101906020018083116104d857829003601f168201915b50505050508152602001600482015481526020016005820160009054906101000a900473ffffffffffffffffffffffffffffffffffffffff1673ffffffffffffffffffffffffffffffffffffffff1673ffffffffffffffffffffffffffffffffffffffff1681526020016006820160009054906101000a900473ffffffffffffffffffffffffffffffffffffffff1673ffffffffffffffffffffffffffffffffffffffff1673ffffffffffffffffffffffffffffffffffffffff1681526020016006820160149054906101000a900460ff161515151581526020016006820160159054906101000a900460ff161515151581525050905080915050919050565b6000349050600080838154811061060f5761060e612637565b5b90600052602060002090600702016040518061012001604052908160008201805461063990612695565b80601f016020809104026020016040519081016040528092919081815260200182805461066590612695565b80156106b25780601f10610687576101008083540402835291602001916106b2565b820191906000526020600020905b81548152906001019060200180831161069557829003601f168201915b5050505050815260200160018201548152602001600282015481526020016003820180546106df90612695565b80601f016020809104026020016040519081016040528092919081815260200182805461070b90612695565b80156107585780601f1061072d57610100808354040283529160200191610758565b820191906000526020600020905b81548152906001019060200180831161073b57829003601f168201915b50505050508152602001600482015481526020016005820160009054906101000a900473ffffffffffffffffffffffffffffffffffffffff1673ffffffffffffffffffffffffffffffffffffffff1673ffffffffffffffffffffffffffffffffffffffff1681526020016006820160009054906101000a900473ffffffffffffffffffffffffffffffffffffffff1673ffffffffffffffffffffffffffffffffffffffff1673ffffffffffffffffffffffffffffffffffffffff1681526020016006820160149054906101000a900460ff161515151581526020016006820160159054906101000a900460ff16151515158152505090503373ffffffffffffffffffffffffffffffffffffffff168160c0015173ffffffffffffffffffffffffffffffffffffffff16141561088c57600080fd5b806020015142111561089d57600080fd5b6000600160008581526020019081526020016000208054905090506000826040015190506108c9611c8f565b600083111561098657600160008781526020019081526020016000206001846108f291906126f6565b8154811061090357610902612637565b5b90600052602060002090600202016040518060400160405290816000820160009054906101000a900473ffffffffffffffffffffffffffffffffffffffff1673ffffffffffffffffffffffffffffffffffffffff1673ffffffffffffffffffffffffffffffffffffffff1681526020016001820154815250509050806020015191505b8185101561099357600080fd5b60008311156109e357806000015173ffffffffffffffffffffffffffffffffffffffff166108fc82602001519081150290604051600060405180830381858888f193505050506109e257600080fd5b5b6109eb611c8f565b33816000019073ffffffffffffffffffffffffffffffffffffffff16908173ffffffffffffffffffffffffffffffffffffffff1681525050858160200181815250506001600088815260200190815260200160002081908060018154018082558091505060019003906000526020600020906002020160009091909190915060008201518160000160006101000a81548173ffffffffffffffffffffffffffffffffffffffff021916908373ffffffffffffffffffffffffffffffffffffffff1602179055506020820151816001015550507f5762e6a7d331cd17a1761e94de3ea3b85e90ee6cdd9d1204e361cc650689d4633388604051610aee92919061272a565b60405180910390a150505050505050565b600060016000838152602001908152602001600020805490509050919050565b60008160a001518260800151600082905060008173ffffffffffffffffffffffffffffffffffffffff16636352211e846040518263ffffffff1660e01b8152600401610b6b9190611ffb565b602060405180830381865afa158015610b88573d6000803e3d6000fd5b505050506040513d601f19601f82011682018060405250810190610bac9190612768565b90503073ffffffffffffffffffffffffffffffffffffffff168173ffffffffffffffffffffffffffffffffffffffff1614610be657600080fd5b60008080549050905060008790806001815401808255809150506001900390600052602060002090600702016000909190919091506000820151816000019080519060200190610c37929190611cbf565b5060208201518160010155604082015181600201556060820151816003019080519060200190610c68929190611cbf565b506080820151816004015560a08201518160050160006101000a81548173ffffffffffffffffffffffffffffffffffffffff021916908373ffffffffffffffffffffffffffffffffffffffff16021790555060c08201518160060160006101000a81548173ffffffffffffffffffffffffffffffffffffffff021916908373ffffffffffffffffffffffffffffffffffffffff16021790555060e08201518160060160146101000a81548160ff0219169083151502179055506101008201518160060160156101000a81548160ff0219169083151502179055505050600260003373ffffffffffffffffffffffffffffffffffffffff1673ffffffffffffffffffffffffffffffffffffffff1681526020019081526020016000208190806001815401808255809150506001900390600052602060002001600090919091909150557f3249a06bd478adf780bb7930214ad005e9cfa517d63221c0b77f27199d1a58b33382604051610ddb92919061272a565b60405180910390a1600195505050505050919050565b60008181548110610e0157600080fd5b9060005260206000209060070201600091509050806000018054610e2490612695565b80601f0160208091040260200160405190810160405280929190818152602001828054610e5090612695565b8015610e9d5780601f10610e7257610100808354040283529160200191610e9d565b820191906000526020600020905b815481529060010190602001808311610e8057829003601f168201915b505050505090806001015490806002015490806003018054610ebe90612695565b80601f0160208091040260200160405190810160405280929190818152602001828054610eea90612695565b8015610f375780601f10610f0c57610100808354040283529160200191610f37565b820191906000526020600020905b815481529060010190602001808311610f1a57829003601f168201915b5050505050908060040154908060050160009054906101000a900473ffffffffffffffffffffffffffffffffffffffff16908060060160009054906101000a900473ffffffffffffffffffffffffffffffffffffffff16908060060160149054906101000a900460ff16908060060160159054906101000a900460ff16905089565b60016020528160005260406000208181548110610fd557600080fd5b9060005260206000209060020201600091509150508060000160009054906101000a900473ffffffffffffffffffffffffffffffffffffffff16908060010154905082565b803373ffffffffffffffffffffffffffffffffffffffff166000828154811061104657611045612637565b5b906000526020600020906007020160060160009054906101000a900473ffffffffffffffffffffffffffffffffffffffff1673ffffffffffffffffffffffffffffffffffffffff161461109857600080fd5b60008083815481106110ad576110ac612637565b5b9060005260206000209060070201604051806101200160405290816000820180546110d790612695565b80601f016020809104026020016040519081016040528092919081815260200182805461110390612695565b80156111505780601f1061112557610100808354040283529160200191611150565b820191906000526020600020905b81548152906001019060200180831161113357829003601f168201915b50505050508152602001600182015481526020016002820154815260200160038201805461117d90612695565b80601f01602080910402602001604051908101604052809291908181526020018280546111a990612695565b80156111f65780601f106111cb576101008083540402835291602001916111f6565b820191906000526020600020905b8154815290600101906020018083116111d957829003601f168201915b50505050508152602001600482015481526020016005820160009054906101000a900473ffffffffffffffffffffffffffffffffffffffff1673ffffffffffffffffffffffffffffffffffffffff1673ffffffffffffffffffffffffffffffffffffffff1681526020016006820160009054906101000a900473ffffffffffffffffffffffffffffffffffffffff1673ffffffffffffffffffffffffffffffffffffffff1673ffffffffffffffffffffffffffffffffffffffff1681526020016006820160149054906101000a900460ff161515151581526020016006820160159054906101000a900460ff161515151581525050905060006001600085815260200190815260200160002080549050905060008111156114075760006001600086815260200190815260200160002060018361133391906126f6565b8154811061134457611343612637565b5b90600052602060002090600202016040518060400160405290816000820160009054906101000a900473ffffffffffffffffffffffffffffffffffffffff1673ffffffffffffffffffffffffffffffffffffffff1673ffffffffffffffffffffffffffffffffffffffff1681526020016001820154815250509050806000015173ffffffffffffffffffffffffffffffffffffffff166108fc82602001519081150290604051600060405180830381858888f1935050505061140557600080fd5b505b61141f308360c001518460a001518560800151611b24565b1561149b57600080858154811061143957611438612637565b5b906000526020600020906007020160060160146101000a81548160ff0219169083151502179055507f39e6c898ce035bbacd9ba4f9753534f8c9f976e0ff70be83cfe887f235afa1d3338560405161149292919061272a565b60405180910390a15b50505050565b60008080549050905090565b60606000600260008473ffffffffffffffffffffffffffffffffffffffff1673ffffffffffffffffffffffffffffffffffffffff16815260200190815260200160002080548060200260200160405190810160405280929190818152602001828054801561153a57602002820191906000526020600020905b815481526020019060010190808311611526575b5050505050905080915050919050565b6002602052816000526040600020818154811061156657600080fd5b90600052602060002001600091509150505481565b6000600260008373ffffffffffffffffffffffffffffffffffffffff1673ffffffffffffffffffffffffffffffffffffffff168152602001908152602001600020805490509050919050565b60008060006001600085815260200190815260200160002080549050905060008111156116b15760006001600086815260200190815260200160002060018361161091906126f6565b8154811061162157611620612637565b5b90600052602060002090600202016040518060400160405290816000820160009054906101000a900473ffffffffffffffffffffffffffffffffffffffff1673ffffffffffffffffffffffffffffffffffffffff1673ffffffffffffffffffffffffffffffffffffffff1681526020016001820154815250509050806020015181600001519350935050506116ba565b60008092509250505b915091565b60008082815481106116d4576116d3612637565b5b9060005260206000209060070201604051806101200160405290816000820180546116fe90612695565b80601f016020809104026020016040519081016040528092919081815260200182805461172a90612695565b80156117775780601f1061174c57610100808354040283529160200191611777565b820191906000526020600020905b81548152906001019060200180831161175a57829003601f168201915b5050505050815260200160018201548152602001600282015481526020016003820180546117a490612695565b80601f01602080910402602001604051908101604052809291908181526020018280546117d090612695565b801561181d5780601f106117f25761010080835404028352916020019161181d565b820191906000526020600020905b81548152906001019060200180831161180057829003601f168201915b50505050508152602001600482015481526020016005820160009054906101000a900473ffffffffffffffffffffffffffffffffffffffff1673ffffffffffffffffffffffffffffffffffffffff1673ffffffffffffffffffffffffffffffffffffffff1681526020016006820160009054906101000a900473ffffffffffffffffffffffffffffffffffffffff1673ffffffffffffffffffffffffffffffffffffffff1673ffffffffffffffffffffffffffffffffffffffff1681526020016006820160149054906101000a900460ff161515151581526020016006820160159054906101000a900460ff1615151515815250509050600060016000848152602001908152602001600020805490509050816020015142101561194057600080fd5b6000811415611957576119528361101a565b611b1f565b60006001600085815260200190815260200160002060018361197991906126f6565b8154811061198a57611989612637565b5b90600052602060002090600202016040518060400160405290816000820160009054906101000a900473ffffffffffffffffffffffffffffffffffffffff1673ffffffffffffffffffffffffffffffffffffffff1673ffffffffffffffffffffffffffffffffffffffff16815260200160018201548152505090508260c0015173ffffffffffffffffffffffffffffffffffffffff166108fc82602001519081150290604051600060405180830381858888f19350505050611a4b57600080fd5b611a633082600001518560a001518660800151611b24565b15611b1d576000808581548110611a7d57611a7c612637565b5b906000526020600020906007020160060160146101000a81548160ff021916908315150217905550600160008581548110611abb57611aba612637565b5b906000526020600020906007020160060160156101000a81548160ff0219169083151502179055507f357afab190ee87fe0ef1c717f2728d2904d9e415a069d99f4d9382873cb3279d3385604051611b1492919061272a565b60405180910390a15b505b505050565b6000808390508073ffffffffffffffffffffffffffffffffffffffff1663095ea7b386856040518363ffffffff1660e01b8152600401611b6592919061272a565b600060405180830381600087803b158015611b7f57600080fd5b505af1158015611b93573d6000803e3d6000fd5b505050508073ffffffffffffffffffffffffffffffffffffffff166323b872dd8787866040518463ffffffff1660e01b8152600401611bd493929190612795565b600060405180830381600087803b158015611bee57600080fd5b505af1158015611c02573d6000803e3d6000fd5b505050506001915050949350505050565b6040518061012001604052806060815260200160008152602001600081526020016060815260200160008152602001600073ffffffffffffffffffffffffffffffffffffffff168152602001600073ffffffffffffffffffffffffffffffffffffffff1681526020016000151581526020016000151581525090565b6040518060400160405280600073ffffffffffffffffffffffffffffffffffffffff168152602001600081525090565b828054611ccb90612695565b90600052602060002090601f016020900481019282611ced5760008555611d34565b82601f10611d0657805160ff1916838001178555611d34565b82800160010185558215611d34579182015b82811115611d33578251825591602001919060010190611d18565b5b509050611d419190611d45565b5090565b5b80821115611d5e576000816000905550600101611d46565b5090565b6000604051905090565b600080fd5b600080fd5b6000819050919050565b611d8981611d76565b8114611d9457600080fd5b50565b600081359050611da681611d80565b92915050565b600060208284031215611dc257611dc1611d6c565b5b6000611dd084828501611d97565b91505092915050565b600081519050919050565b600082825260208201905092915050565b60005b83811015611e13578082015181840152602081019050611df8565b83811115611e22576000848401525b50505050565b6000601f19601f8301169050919050565b6000611e4482611dd9565b611e4e8185611de4565b9350611e5e818560208601611df5565b611e6781611e28565b840191505092915050565b611e7b81611d76565b82525050565b600073ffffffffffffffffffffffffffffffffffffffff82169050919050565b6000611eac82611e81565b9050919050565b611ebc81611ea1565b82525050565b6000611ecd82611e81565b9050919050565b611edd81611ec2565b82525050565b60008115159050919050565b611ef881611ee3565b82525050565b6000610120830160008301518482036000860152611f1c8282611e39565b9150506020830151611f316020860182611e72565b506040830151611f446040860182611e72565b5060608301518482036060860152611f5c8282611e39565b9150506080830151611f716080860182611e72565b5060a0830151611f8460a0860182611eb3565b5060c0830151611f9760c0860182611ed4565b5060e0830151611faa60e0860182611eef565b50610100830151611fbf610100860182611eef565b508091505092915050565b60006020820190508181036000830152611fe48184611efe565b905092915050565b611ff581611d76565b82525050565b60006020820190506120106000830184611fec565b92915050565b600080fd5b7f4e487b7100000000000000000000000000000000000000000000000000000000600052604160045260246000fd5b61205382611e28565b810181811067ffffffffffffffff821117156120725761207161201b565b5b80604052505050565b6000612085611d62565b9050612091828261204a565b919050565b600080fd5b600080fd5b600080fd5b600067ffffffffffffffff8211156120c0576120bf61201b565b5b6120c982611e28565b9050602081019050919050565b82818337600083830152505050565b60006120f86120f3846120a5565b61207b565b905082815260208101848484011115612114576121136120a0565b5b61211f8482856120d6565b509392505050565b600082601f83011261213c5761213b61209b565b5b813561214c8482602086016120e5565b91505092915050565b61215e81611ea1565b811461216957600080fd5b50565b60008135905061217b81612155565b92915050565b61218a81611ec2565b811461219557600080fd5b50565b6000813590506121a781612181565b92915050565b6121b681611ee3565b81146121c157600080fd5b50565b6000813590506121d3816121ad565b92915050565b600061012082840312156121f0576121ef612016565b5b6121fb61012061207b565b9050600082013567ffffffffffffffff81111561221b5761221a612096565b5b61222784828501612127565b600083015250602061223b84828501611d97565b602083015250604061224f84828501611d97565b604083015250606082013567ffffffffffffffff81111561227357612272612096565b5b61227f84828501612127565b606083015250608061229384828501611d97565b60808301525060a06122a78482850161216c565b60a08301525060c06122bb84828501612198565b60c08301525060e06122cf848285016121c4565b60e0830152506101006122e4848285016121c4565b6101008301525092915050565b60006020828403121561230757612306611d6c565b5b600082013567ffffffffffffffff81111561232557612324611d71565b5b612331848285016121d9565b91505092915050565b61234381611ee3565b82525050565b600060208201905061235e600083018461233a565b92915050565b600082825260208201905092915050565b600061238082611dd9565b61238a8185612364565b935061239a818560208601611df5565b6123a381611e28565b840191505092915050565b6123b781611ea1565b82525050565b6123c681611ec2565b82525050565b60006101208201905081810360008301526123e7818c612375565b90506123f6602083018b611fec565b612403604083018a611fec565b81810360608301526124158189612375565b90506124246080830188611fec565b61243160a08301876123ae565b61243e60c08301866123bd565b61244b60e083018561233a565b61245961010083018461233a565b9a9950505050505050505050565b6000806040838503121561247e5761247d611d6c565b5b600061248c85828601611d97565b925050602061249d85828601611d97565b9150509250929050565b60006040820190506124bc60008301856123bd565b6124c96020830184611fec565b9392505050565b6000602082840312156124e6576124e5611d6c565b5b60006124f48482850161216c565b91505092915050565b600081519050919050565b600082825260208201905092915050565b6000819050602082019050919050565b60006125358383611e72565b60208301905092915050565b6000602082019050919050565b6000612559826124fd565b6125638185612508565b935061256e83612519565b8060005b8381101561259f5781516125868882612529565b975061259183612541565b925050600181019050612572565b5085935050505092915050565b600060208201905081810360008301526125c6818461254e565b905092915050565b600080604083850312156125e5576125e4611d6c565b5b60006125f38582860161216c565b925050602061260485828601611d97565b9150509250929050565b60006040820190506126236000830185611fec565b61263060208301846123ae565b9392505050565b7f4e487b7100000000000000000000000000000000000000000000000000000000600052603260045260246000fd5b7f4e487b7100000000000000000000000000000000000000000000000000000000600052602260045260246000fd5b600060028204905060018216806126ad57607f821691505b602082108114156126c1576126c0612666565b5b50919050565b7f4e487b7100000000000000000000000000000000000000000000000000000000600052601160045260246000fd5b600061270182611d76565b915061270c83611d76565b92508282101561271f5761271e6126c7565b5b828203905092915050565b600060408201905061273f60008301856123ae565b61274c6020830184611fec565b9392505050565b60008151905061276281612155565b92915050565b60006020828403121561277e5761277d611d6c565b5b600061278c84828501612753565b91505092915050565b60006060820190506127aa60008301866123ae565b6127b760208301856123ae565b6127c46040830184611fec565b94935050505056fea26469706673582212201933b3d9f39eb03208a1fb1aed375321115de6a5a3b970652e743d1d7752d86664736f6c634300080b0033",
  "immutableReferences": {},
  "source": "// SPDX-License-Identifier: MIT\npragma solidity ^0.8.0;\n\nimport \"./DeedRepository.sol\";\n\n/**\n@title Auction Repository\n * This contract allows auctions to be created for non-fungible tokens\n * Moreover, it includes the basic functionalities of an auction house\n */\ncontract AuctionRepository {\n    // Auction struct which holds all the required info\n    struct Auction {\n        string name;\n        uint256 blockDeadline;\n        uint256 startPrice;\n        string metadata;\n        uint256 deedId;\n        address deedRepositoryAddress;\n        address payable owner;\n        bool active;\n        bool finalized;\n    }\n\n    // Bi struct to hold bidder an amount\n    struct Bid {\n        address payable from;\n        uint256 amount;\n    }\n\n    // BidSuccess is fired when a new bid is given to an auction\n    event BidSuccess(address _from, uint256 _auctionId);\n\n    // AuctionCreated is fired when an auction is created\n    event AuctionCreated(address _owner, uint256 _auctionId);\n\n    // AuctionCanceld is fired when an auction is canceled\n    event AuctionCanceled(address _owner, uint256 _auctionId);\n\n    // AuctionFinalized is fired when an auction is finalized\n    event AuctionFinalized(address _owner, uint256 _auctionId);\n\n    // Array with all auctions\n    Auction[] public auctions;\n\n    // Mapping from auction index to user bids\n    mapping(uint256 => Bid[]) public auctionBids;\n\n    // Mapping from owner to a list of owned auctions\n    mapping(address => uint256[]) public auctionOwner;\n\n    /*\n     * @dev Guarantees msg.sender is owner of the given auction\n     * @param _auctionId uint256 ID of the auction to validate its ownership belongs to msg.sender\n     */\n    modifier isOwner(uint256 _auctionId) {\n        require(auctions[_auctionId].owner == msg.sender);\n        _;\n    }\n\n    /**\n     * @dev Guarantees this contract is owner of the given deed/token\n     * @param _deedRepositoryAddress address of the deed repository to validate from\n     * @param _deedId uint256 ID of the deed which has been registered in the deed repository\n     */\n    modifier contractIsDeedOwner(\n        address payable _deedRepositoryAddress,\n        uint256 _deedId\n    ) {\n        DeedRepository repository = DeedRepository(_deedRepositoryAddress);\n        address deedOwner = repository.ownerOf(_deedId);\n        require(deedOwner == address(this));\n        _;\n    }\n\n    /**\n     * @dev Gets the lenth of auctions\n     * @return uint representing the auction count\n     */\n    function getCount() public view returns (uint256) {\n        return auctions.length;\n    }\n\n    /**\n     * @dev Gets the bid counts of a given auction\n     * @param _auctionId uint ID of the auction\n     */\n    function getBidsCount(uint256 _auctionId) public view returns (uint256) {\n        return auctionBids[_auctionId].length;\n    }\n\n    /**\n     * @dev Gets an array of owned auctions\n     * @param _owner address of the auction owner\n     */\n    function getAuctionsOf(address _owner)\n        public\n        view\n        returns (uint256[] memory)\n    {\n        uint256[] memory ownedAuctions = auctionOwner[_owner];\n        return ownedAuctions;\n    }\n\n    /**\n     * @dev Gets the current bid amount and user address from the given auction ID\n     * @param _auctionId uint of the auction ID\n     * @return amount uint256, address of last bidder\n     */\n    function getCurrentBid(uint256 _auctionId)\n        public\n        view\n        returns (uint256, address)\n    {\n        uint256 bidsLength = auctionBids[_auctionId].length;\n        // if there are bids refund the last bid\n        if (bidsLength > 0) {\n            Bid memory lastBid = auctionBids[_auctionId][bidsLength - 1];\n            return (lastBid.amount, lastBid.from);\n        }\n        return (uint256(0), address(0));\n    }\n\n    /**\n     * @dev Gets the total number of auctions owned by an address\n     * @param _owner address of the owner\n     * @return uint total number of auctions\n     */\n    function getAuctionsCountOfOwner(address _owner)\n        public\n        view\n        returns (uint256)\n    {\n        return auctionOwner[_owner].length;\n    }\n\n    /**\n     * @dev Gets the info of a given auction which are store within a struct\n     * @return the auction struct containing all info related to it\n     */\n    function getAuctionById(uint256 _auctionId)\n        public\n        view\n        returns (Auction memory)\n    {\n        Auction memory auc = auctions[_auctionId];\n        return auc;\n    }\n\n    /**\n     * @dev Gets the info of a given auction which are store within a struct\n     * @return the auction struct containing all info related to it\n     */\n    function createAuction(Auction memory auction)\n        public\n        contractIsDeedOwner(\n            payable(auction.deedRepositoryAddress),\n            auction.deedId\n        )\n        returns (bool)\n    {\n        uint256 auctionId = auctions.length;\n        auctions.push(auction);\n        auctionOwner[msg.sender].push(auctionId);\n\n        emit AuctionCreated(msg.sender, auctionId);\n        return true;\n    }\n\n    function approveAndTransfer(\n        address _from,\n        address _to,\n        address _deedRepositoryAddress,\n        uint256 _deedId\n    ) internal returns (bool) {\n        DeedRepository remoteContract = DeedRepository(\n            payable(_deedRepositoryAddress)\n        );\n        remoteContract.approve(_to, _deedId);\n        remoteContract.transferFrom(_from, _to, _deedId);\n        return true;\n    }\n\n    /**\n     * @dev Cancels an ongoing auction by the owner\n     * @dev Deed is transfered back to the auction owner\n     * @dev Bidder is refunded with the initial amount\n     * @param _auctionId uint ID of the created auction\n     */\n    function cancelAuction(uint256 _auctionId) public isOwner(_auctionId) {\n        Auction memory myAuction = auctions[_auctionId];\n        uint256 bidsLength = auctionBids[_auctionId].length;\n\n        // If there are bids refund the last bid\n        if (bidsLength > 0) {\n            Bid memory lastBid = auctionBids[_auctionId][bidsLength - 1];\n            if (!lastBid.from.send(lastBid.amount)) {\n                revert();\n            }\n        }\n\n        // approve and transfer from this contract to auction owner\n        if (\n            approveAndTransfer(\n                address(this),\n                myAuction.owner,\n                myAuction.deedRepositoryAddress,\n                myAuction.deedId\n            )\n        ) {\n            auctions[_auctionId].active = false;\n            emit AuctionCanceled(msg.sender, _auctionId);\n        }\n    }\n\n    /**\n     * @dev Finalized an ended auction\n     * @dev The auction should be ended, and there should be at least one bid\n     * @dev On success Deed is transfered to bidder and auction owner gets the amount\n     * @param _auctionId uint ID of the created auction\n     */\n    function finalizeAuction(uint256 _auctionId) public {\n        Auction memory myAuction = auctions[_auctionId];\n        uint256 bidsLength = auctionBids[_auctionId].length;\n\n        // 1. if auction not ended just revert\n        if (block.timestamp < myAuction.blockDeadline) revert();\n\n        if (bidsLength == 0) {\n            cancelAuction(_auctionId);\n        } else {\n            // 2. the money goes to the auction owner\n            Bid memory lastBid = auctionBids[_auctionId][bidsLength - 1];\n            if (!myAuction.owner.send(lastBid.amount)) {\n                revert();\n            }\n\n            // approve and transfer from this contract to the bid winner\n            if (\n                approveAndTransfer(\n                    address(this),\n                    lastBid.from,\n                    myAuction.deedRepositoryAddress,\n                    myAuction.deedId\n                )\n            ) {\n                auctions[_auctionId].active = false;\n                auctions[_auctionId].finalized = true;\n                emit AuctionFinalized(msg.sender, _auctionId);\n            }\n        }\n    }\n\n    /**\n     * @dev Bidder sends bid to an auction\n     * @dev Auction should be active and not ended\n     * @dev Refund previous bidder if a new bid is valid and placed\n     * @param _auctionId uint ID of the created auction\n     */\n    function bidOnAuction(uint256 _auctionId) external payable {\n        uint256 amountSent = msg.value;\n\n        // owner can't bid on their auctions\n        Auction memory myAuction = auctions[_auctionId];\n        if (myAuction.owner == msg.sender) revert();\n\n        // if auction is expired\n        if (block.timestamp > myAuction.blockDeadline) revert();\n\n        uint256 bidsLength = auctionBids[_auctionId].length;\n        uint256 tempAmount = myAuction.startPrice;\n        Bid memory lastBid;\n\n        // there are previous bids\n        if (bidsLength > 0) {\n            lastBid = auctionBids[_auctionId][bidsLength - 1];\n            tempAmount = lastBid.amount;\n        }\n\n        // check if amount is greater than previous amount\n        if (amountSent < tempAmount) revert();\n\n        // refund the last bidder\n        if (bidsLength > 0) {\n            if (!lastBid.from.send(lastBid.amount)) {\n                revert();\n            }\n        }\n\n        // insert bid\n        Bid memory newBid;\n        newBid.from = payable(msg.sender);\n        newBid.amount = amountSent;\n        auctionBids[_auctionId].push(newBid);\n        emit BidSuccess(msg.sender, _auctionId);\n    }\n}\n",
  "sourcePath": "/Users/mayckonbarbosadasilva/Desktop/desktop/mayckon/solidity/Auction/contracts/AuctionRepository.sol",
  "compiler": {
    "name": "solc",
    "version": "0.8.11+commit.d7f03943.Emscripten.clang"
  },
  "schemaVersion": "3.4.4",
  "updatedAt": "2022-02-23T13:44:58.210Z",
  "devdoc": {
    "kind": "dev",
    "methods": {
      "bidOnAuction(uint256)": {
        "details": "Bidder sends bid to an auctionAuction should be active and not endedRefund previous bidder if a new bid is valid and placed",
        "params": {
          "_auctionId": "uint ID of the created auction"
        }
      },
      "cancelAuction(uint256)": {
        "details": "Cancels an ongoing auction by the ownerDeed is transfered back to the auction ownerBidder is refunded with the initial amount",
        "params": {
          "_auctionId": "uint ID of the created auction"
        }
      },
      "createAuction((string,uint256,uint256,string,uint256,address,address,bool,bool))": {
        "details": "Gets the info of a given auction which are store within a struct",
        "returns": {
          "_0": "the auction struct containing all info related to it"
        }
      },
      "finalizeAuction(uint256)": {
        "details": "Finalized an ended auctionThe auction should be ended, and there should be at least one bidOn success Deed is transfered to bidder and auction owner gets the amount",
        "params": {
          "_auctionId": "uint ID of the created auction"
        }
      },
      "getAuctionById(uint256)": {
        "details": "Gets the info of a given auction which are store within a struct",
        "returns": {
          "_0": "the auction struct containing all info related to it"
        }
      },
      "getAuctionsCountOfOwner(address)": {
        "details": "Gets the total number of auctions owned by an address",
        "params": {
          "_owner": "address of the owner"
        },
        "returns": {
          "_0": "uint total number of auctions"
        }
      },
      "getAuctionsOf(address)": {
        "details": "Gets an array of owned auctions",
        "params": {
          "_owner": "address of the auction owner"
        }
      },
      "getBidsCount(uint256)": {
        "details": "Gets the bid counts of a given auction",
        "params": {
          "_auctionId": "uint ID of the auction"
        }
      },
      "getCount()": {
        "details": "Gets the lenth of auctions",
        "returns": {
          "_0": "uint representing the auction count"
        }
      },
      "getCurrentBid(uint256)": {
        "details": "Gets the current bid amount and user address from the given auction ID",
        "params": {
          "_auctionId": "uint of the auction ID"
        },
        "returns": {
          "_0": "amount uint256, address of last bidder"
        }
      }
    },
    "title": "Auction Repository This contract allows auctions to be created for non-fungible tokens Moreover, it includes the basic functionalities of an auction house",
    "version": 1
  },
  "userdoc": {
    "kind": "user",
    "methods": {},
    "version": 1
  }
}