{
  "contractName": "DeedRepository",
  "abi": [
    {
      "inputs": [
        {
          "internalType": "string",
          "name": "_name",
          "type": "string"
        },
        {
          "internalType": "string",
          "name": "_symbol",
          "type": "string"
        }
      ],
      "stateMutability": "nonpayable",
      "type": "constructor"
    },
    {
      "anonymous": false,
      "inputs": [
        {
          "indexed": true,
          "internalType": "address",
          "name": "owner",
          "type": "address"
        },
        {
          "indexed": true,
          "internalType": "address",
          "name": "approved",
          "type": "address"
        },
        {
          "indexed": true,
          "internalType": "uint256",
          "name": "tokenId",
          "type": "uint256"
        }
      ],
      "name": "Approval",
      "type": "event"
    },
    {
      "anonymous": false,
      "inputs": [
        {
          "indexed": true,
          "internalType": "address",
          "name": "owner",
          "type": "address"
        },
        {
          "indexed": true,
          "internalType": "address",
          "name": "operator",
          "type": "address"
        },
        {
          "indexed": false,
          "internalType": "bool",
          "name": "approved",
          "type": "bool"
        }
      ],
      "name": "ApprovalForAll",
      "type": "event"
    },
    {
      "anonymous": false,
      "inputs": [
        {
          "indexed": false,
          "internalType": "address",
          "name": "_by",
          "type": "address"
        },
        {
          "indexed": false,
          "internalType": "uint256",
          "name": "_tokenId",
          "type": "uint256"
        }
      ],
      "name": "DeedRegistered",
      "type": "event"
    },
    {
      "anonymous": false,
      "inputs": [
        {
          "indexed": true,
          "internalType": "address",
          "name": "from",
          "type": "address"
        },
        {
          "indexed": true,
          "internalType": "address",
          "name": "to",
          "type": "address"
        },
        {
          "indexed": true,
          "internalType": "uint256",
          "name": "tokenId",
          "type": "uint256"
        }
      ],
      "name": "Transfer",
      "type": "event"
    },
    {
      "inputs": [
        {
          "internalType": "address",
          "name": "to",
          "type": "address"
        },
        {
          "internalType": "uint256",
          "name": "tokenId",
          "type": "uint256"
        }
      ],
      "name": "approve",
      "outputs": [],
      "stateMutability": "nonpayable",
      "type": "function"
    },
    {
      "inputs": [
        {
          "internalType": "address",
          "name": "owner",
          "type": "address"
        }
      ],
      "name": "balanceOf",
      "outputs": [
        {
          "internalType": "uint256",
          "name": "",
          "type": "uint256"
        }
      ],
      "stateMutability": "view",
      "type": "function"
    },
    {
      "inputs": [
        {
          "internalType": "uint256",
          "name": "tokenId",
          "type": "uint256"
        }
      ],
      "name": "getApproved",
      "outputs": [
        {
          "internalType": "address",
          "name": "",
          "type": "address"
        }
      ],
      "stateMutability": "view",
      "type": "function"
    },
    {
      "inputs": [
        {
          "internalType": "address",
          "name": "owner",
          "type": "address"
        },
        {
          "internalType": "address",
          "name": "operator",
          "type": "address"
        }
      ],
      "name": "isApprovedForAll",
      "outputs": [
        {
          "internalType": "bool",
          "name": "",
          "type": "bool"
        }
      ],
      "stateMutability": "view",
      "type": "function"
    },
    {
      "inputs": [],
      "name": "name",
      "outputs": [
        {
          "internalType": "string",
          "name": "",
          "type": "string"
        }
      ],
      "stateMutability": "view",
      "type": "function"
    },
    {
      "inputs": [
        {
          "internalType": "uint256",
          "name": "tokenId",
          "type": "uint256"
        }
      ],
      "name": "ownerOf",
      "outputs": [
        {
          "internalType": "address",
          "name": "",
          "type": "address"
        }
      ],
      "stateMutability": "view",
      "type": "function"
    },
    {
      "inputs": [
        {
          "internalType": "address",
          "name": "from",
          "type": "address"
        },
        {
          "internalType": "address",
          "name": "to",
          "type": "address"
        },
        {
          "internalType": "uint256",
          "name": "tokenId",
          "type": "uint256"
        }
      ],
      "name": "safeTransferFrom",
      "outputs": [],
      "stateMutability": "nonpayable",
      "type": "function"
    },
    {
      "inputs": [
        {
          "internalType": "address",
          "name": "from",
          "type": "address"
        },
        {
          "internalType": "address",
          "name": "to",
          "type": "address"
        },
        {
          "internalType": "uint256",
          "name": "tokenId",
          "type": "uint256"
        },
        {
          "internalType": "bytes",
          "name": "_data",
          "type": "bytes"
        }
      ],
      "name": "safeTransferFrom",
      "outputs": [],
      "stateMutability": "nonpayable",
      "type": "function"
    },
    {
      "inputs": [
        {
          "internalType": "address",
          "name": "operator",
          "type": "address"
        },
        {
          "internalType": "bool",
          "name": "approved",
          "type": "bool"
        }
      ],
      "name": "setApprovalForAll",
      "outputs": [],
      "stateMutability": "nonpayable",
      "type": "function"
    },
    {
      "inputs": [
        {
          "internalType": "bytes4",
          "name": "interfaceId",
          "type": "bytes4"
        }
      ],
      "name": "supportsInterface",
      "outputs": [
        {
          "internalType": "bool",
          "name": "",
          "type": "bool"
        }
      ],
      "stateMutability": "view",
      "type": "function"
    },
    {
      "inputs": [],
      "name": "symbol",
      "outputs": [
        {
          "internalType": "string",
          "name": "",
          "type": "string"
        }
      ],
      "stateMutability": "view",
      "type": "function"
    },
    {
      "inputs": [
        {
          "internalType": "uint256",
          "name": "tokenId",
          "type": "uint256"
        }
      ],
      "name": "tokenURI",
      "outputs": [
        {
          "internalType": "string",
          "name": "",
          "type": "string"
        }
      ],
      "stateMutability": "view",
      "type": "function"
    },
    {
      "inputs": [
        {
          "internalType": "address",
          "name": "from",
          "type": "address"
        },
        {
          "internalType": "address",
          "name": "to",
          "type": "address"
        },
        {
          "internalType": "uint256",
          "name": "tokenId",
          "type": "uint256"
        }
      ],
      "name": "transferFrom",
      "outputs": [],
      "stateMutability": "nonpayable",
      "type": "function"
    },
    {
      "stateMutability": "payable",
      "type": "receive"
    },
    {
      "inputs": [
        {
          "internalType": "uint256",
          "name": "_tokenId",
          "type": "uint256"
        },
        {
          "internalType": "string",
          "name": "_uri",
          "type": "string"
        }
      ],
      "name": "registerDeed",
      "outputs": [],
      "stateMutability": "nonpayable",
      "type": "function"
    },
    {
      "inputs": [
        {
          "internalType": "uint256",
          "name": "_tokenId",
          "type": "uint256"
        },
        {
          "internalType": "string",
          "name": "_uri",
          "type": "string"
        }
      ],
      "name": "addDeedMetadata",
      "outputs": [
        {
          "internalType": "bool",
          "name": "",
          "type": "bool"
        }
      ],
      "stateMutability": "nonpayable",
      "type": "function"
    }
  ],
  "bytecode": "0x60806040523480156200001157600080fd5b50604051620030b2380380620030b28339818101604052810190620000379190620002c2565b818181600090805190602001906200005192919062000075565b5080600190805190602001906200006a92919062000075565b5050505050620003ac565b828054620000839062000376565b90600052602060002090601f016020900481019282620000a75760008555620000f3565b82601f10620000c257805160ff1916838001178555620000f3565b82800160010185558215620000f3579182015b82811115620000f2578251825591602001919060010190620000d5565b5b50905062000102919062000106565b5090565b5b808211156200012157600081600090555060010162000107565b5090565b6000604051905090565b600080fd5b600080fd5b600080fd5b600080fd5b6000601f19601f8301169050919050565b7f4e487b7100000000000000000000000000000000000000000000000000000000600052604160045260246000fd5b6200018e8262000143565b810181811067ffffffffffffffff82111715620001b057620001af62000154565b5b80604052505050565b6000620001c562000125565b9050620001d3828262000183565b919050565b600067ffffffffffffffff821115620001f657620001f562000154565b5b620002018262000143565b9050602081019050919050565b60005b838110156200022e57808201518184015260208101905062000211565b838111156200023e576000848401525b50505050565b60006200025b6200025584620001d8565b620001b9565b9050828152602081018484840111156200027a57620002796200013e565b5b620002878482856200020e565b509392505050565b600082601f830112620002a757620002a662000139565b5b8151620002b984826020860162000244565b91505092915050565b60008060408385031215620002dc57620002db6200012f565b5b600083015167ffffffffffffffff811115620002fd57620002fc62000134565b5b6200030b858286016200028f565b925050602083015167ffffffffffffffff8111156200032f576200032e62000134565b5b6200033d858286016200028f565b9150509250929050565b7f4e487b7100000000000000000000000000000000000000000000000000000000600052602260045260246000fd5b600060028204905060018216806200038f57607f821691505b60208210811415620003a657620003a562000347565b5b50919050565b612cf680620003bc6000396000f3fe6080604052600436106100ec5760003560e01c806370a082311161008a578063c87b56dd11610059578063c87b56dd14610312578063da5560331461034f578063e985e9c51461038c578063f72439dd146103c9576100f6565b806370a082311461025857806395d89b4114610295578063a22cb465146102c0578063b88d4fde146102e9576100f6565b8063095ea7b3116100c6578063095ea7b3146101a057806323b872dd146101c957806342842e0e146101f25780636352211e1461021b576100f6565b806301ffc9a7146100fb57806306fdde0314610138578063081812fc14610163576100f6565b366100f657600080fd5b600080fd5b34801561010757600080fd5b50610122600480360381019061011d9190611a2f565b6103f2565b60405161012f9190611a77565b60405180910390f35b34801561014457600080fd5b5061014d6104d4565b60405161015a9190611b2b565b60405180910390f35b34801561016f57600080fd5b5061018a60048036038101906101859190611b83565b610566565b6040516101979190611bf1565b60405180910390f35b3480156101ac57600080fd5b506101c760048036038101906101c29190611c38565b6105eb565b005b3480156101d557600080fd5b506101f060048036038101906101eb9190611c78565b610703565b005b3480156101fe57600080fd5b5061021960048036038101906102149190611c78565b610763565b005b34801561022757600080fd5b50610242600480360381019061023d9190611b83565b610783565b60405161024f9190611bf1565b60405180910390f35b34801561026457600080fd5b5061027f600480360381019061027a9190611ccb565b610835565b60405161028c9190611d07565b60405180910390f35b3480156102a157600080fd5b506102aa6108ed565b6040516102b79190611b2b565b60405180910390f35b3480156102cc57600080fd5b506102e760048036038101906102e29190611d4e565b61097f565b005b3480156102f557600080fd5b50610310600480360381019061030b9190611ec3565b610995565b005b34801561031e57600080fd5b5061033960048036038101906103349190611b83565b6109f7565b6040516103469190611b2b565b60405180910390f35b34801561035b57600080fd5b5061037660048036038101906103719190611fe7565b610b49565b6040516103839190611a77565b60405180910390f35b34801561039857600080fd5b506103b360048036038101906103ae9190612043565b610b5f565b6040516103c09190611a77565b60405180910390f35b3480156103d557600080fd5b506103f060048036038101906103eb9190611fe7565b610bf3565b005b60007f80ac58cd000000000000000000000000000000000000000000000000000000007bffffffffffffffffffffffffffffffffffffffffffffffffffffffff1916827bffffffffffffffffffffffffffffffffffffffffffffffffffffffff191614806104bd57507f5b5e139f000000000000000000000000000000000000000000000000000000007bffffffffffffffffffffffffffffffffffffffffffffffffffffffff1916827bffffffffffffffffffffffffffffffffffffffffffffffffffffffff1916145b806104cd57506104cc82610c59565b5b9050919050565b6060600080546104e3906120b2565b80601f016020809104026020016040519081016040528092919081815260200182805461050f906120b2565b801561055c5780601f106105315761010080835404028352916020019161055c565b820191906000526020600020905b81548152906001019060200180831161053f57829003601f168201915b5050505050905090565b600061057182610cc3565b6105b0576040517f08c379a00000000000000000000000000000000000000000000000000000000081526004016105a790612156565b60405180910390fd5b6004600083815260200190815260200160002060009054906101000a900473ffffffffffffffffffffffffffffffffffffffff169050919050565b60006105f682610783565b90508073ffffffffffffffffffffffffffffffffffffffff168373ffffffffffffffffffffffffffffffffffffffff161415610667576040517f08c379a000000000000000000000000000000000000000000000000000000000815260040161065e906121e8565b60405180910390fd5b8073ffffffffffffffffffffffffffffffffffffffff16610686610d2f565b73ffffffffffffffffffffffffffffffffffffffff1614806106b557506106b4816106af610d2f565b610b5f565b5b6106f4576040517f08c379a00000000000000000000000000000000000000000000000000000000081526004016106eb9061227a565b60405180910390fd5b6106fe8383610d37565b505050565b61071461070e610d2f565b82610df0565b610753576040517f08c379a000000000000000000000000000000000000000000000000000000000815260040161074a9061230c565b60405180910390fd5b61075e838383610ece565b505050565b61077e83838360405180602001604052806000815250610995565b505050565b6000806002600084815260200190815260200160002060009054906101000a900473ffffffffffffffffffffffffffffffffffffffff169050600073ffffffffffffffffffffffffffffffffffffffff168173ffffffffffffffffffffffffffffffffffffffff16141561082c576040517f08c379a00000000000000000000000000000000000000000000000000000000081526004016108239061239e565b60405180910390fd5b80915050919050565b60008073ffffffffffffffffffffffffffffffffffffffff168273ffffffffffffffffffffffffffffffffffffffff1614156108a6576040517f08c379a000000000000000000000000000000000000000000000000000000000815260040161089d90612430565b60405180910390fd5b600360008373ffffffffffffffffffffffffffffffffffffffff1673ffffffffffffffffffffffffffffffffffffffff168152602001908152602001600020549050919050565b6060600180546108fc906120b2565b80601f0160208091040260200160405190810160405280929190818152602001828054610928906120b2565b80156109755780601f1061094a57610100808354040283529160200191610975565b820191906000526020600020905b81548152906001019060200180831161095857829003601f168201915b5050505050905090565b61099161098a610d2f565b8383611135565b5050565b6109a66109a0610d2f565b83610df0565b6109e5576040517f08c379a00000000000000000000000000000000000000000000000000000000081526004016109dc9061230c565b60405180910390fd5b6109f1848484846112a2565b50505050565b6060610a0282610cc3565b610a41576040517f08c379a0000000000000000000000000000000000000000000000000000000008152600401610a38906124c2565b60405180910390fd5b6000600660008481526020019081526020016000208054610a61906120b2565b80601f0160208091040260200160405190810160405280929190818152602001828054610a8d906120b2565b8015610ada5780601f10610aaf57610100808354040283529160200191610ada565b820191906000526020600020905b815481529060010190602001808311610abd57829003601f168201915b505050505090506000610aeb6112fe565b9050600081511415610b01578192505050610b44565b600082511115610b36578082604051602001610b1e92919061251e565b60405160208183030381529060405292505050610b44565b610b3f84611315565b925050505b919050565b6000610b5583836113bc565b6001905092915050565b6000600560008473ffffffffffffffffffffffffffffffffffffffff1673ffffffffffffffffffffffffffffffffffffffff16815260200190815260200160002060008373ffffffffffffffffffffffffffffffffffffffff1673ffffffffffffffffffffffffffffffffffffffff16815260200190815260200160002060009054906101000a900460ff16905092915050565b610bfd3383611430565b6000610c098383610b49565b90508015610c4f577f32cc5b866d6a5990a7f987020b639157969cb963b9beb2cdf41df22ab152df353384604051610c42929190612542565b60405180910390a1610c54565b600080fd5b505050565b60007f01ffc9a7000000000000000000000000000000000000000000000000000000007bffffffffffffffffffffffffffffffffffffffffffffffffffffffff1916827bffffffffffffffffffffffffffffffffffffffffffffffffffffffff1916149050919050565b60008073ffffffffffffffffffffffffffffffffffffffff166002600084815260200190815260200160002060009054906101000a900473ffffffffffffffffffffffffffffffffffffffff1673ffffffffffffffffffffffffffffffffffffffff1614159050919050565b600033905090565b816004600083815260200190815260200160002060006101000a81548173ffffffffffffffffffffffffffffffffffffffff021916908373ffffffffffffffffffffffffffffffffffffffff160217905550808273ffffffffffffffffffffffffffffffffffffffff16610daa83610783565b73ffffffffffffffffffffffffffffffffffffffff167f8c5be1e5ebec7d5bd14f71427d1e84f3dd0314c0f7b2291e5b200ac8c7c3b92560405160405180910390a45050565b6000610dfb82610cc3565b610e3a576040517f08c379a0000000000000000000000000000000000000000000000000000000008152600401610e31906125dd565b60405180910390fd5b6000610e4583610783565b90508073ffffffffffffffffffffffffffffffffffffffff168473ffffffffffffffffffffffffffffffffffffffff161480610eb457508373ffffffffffffffffffffffffffffffffffffffff16610e9c84610566565b73ffffffffffffffffffffffffffffffffffffffff16145b80610ec55750610ec48185610b5f565b5b91505092915050565b8273ffffffffffffffffffffffffffffffffffffffff16610eee82610783565b73ffffffffffffffffffffffffffffffffffffffff1614610f44576040517f08c379a0000000000000000000000000000000000000000000000000000000008152600401610f3b9061266f565b60405180910390fd5b600073ffffffffffffffffffffffffffffffffffffffff168273ffffffffffffffffffffffffffffffffffffffff161415610fb4576040517f08c379a0000000000000000000000000000000000000000000000000000000008152600401610fab90612701565b60405180910390fd5b610fbf83838361160a565b610fca600082610d37565b6001600360008573ffffffffffffffffffffffffffffffffffffffff1673ffffffffffffffffffffffffffffffffffffffff168152602001908152602001600020600082825461101a9190612750565b925050819055506001600360008473ffffffffffffffffffffffffffffffffffffffff1673ffffffffffffffffffffffffffffffffffffffff16815260200190815260200160002060008282546110719190612784565b92505081905550816002600083815260200190815260200160002060006101000a81548173ffffffffffffffffffffffffffffffffffffffff021916908373ffffffffffffffffffffffffffffffffffffffff160217905550808273ffffffffffffffffffffffffffffffffffffffff168473ffffffffffffffffffffffffffffffffffffffff167fddf252ad1be2c89b69c2b068fc378daa952ba7f163c4a11628f55a4df523b3ef60405160405180910390a461113083838361160f565b505050565b8173ffffffffffffffffffffffffffffffffffffffff168373ffffffffffffffffffffffffffffffffffffffff1614156111a4576040517f08c379a000000000000000000000000000000000000000000000000000000000815260040161119b90612826565b60405180910390fd5b80600560008573ffffffffffffffffffffffffffffffffffffffff1673ffffffffffffffffffffffffffffffffffffffff16815260200190815260200160002060008473ffffffffffffffffffffffffffffffffffffffff1673ffffffffffffffffffffffffffffffffffffffff16815260200190815260200160002060006101000a81548160ff0219169083151502179055508173ffffffffffffffffffffffffffffffffffffffff168373ffffffffffffffffffffffffffffffffffffffff167f17307eab39ab6107e8899845ad3d59bd9653f200f220920489ca2b5937696c31836040516112959190611a77565b60405180910390a3505050565b6112ad848484610ece565b6112b984848484611614565b6112f8576040517f08c379a00000000000000000000000000000000000000000000000000000000081526004016112ef906128b8565b60405180910390fd5b50505050565b606060405180602001604052806000815250905090565b606061132082610cc3565b61135f576040517f08c379a00000000000000000000000000000000000000000000000000000000081526004016113569061294a565b60405180910390fd5b60006113696112fe565b9050600081511161138957604051806020016040528060008152506113b4565b806113938461179c565b6040516020016113a492919061251e565b6040516020818303038152906040525b915050919050565b6113c582610cc3565b611404576040517f08c379a00000000000000000000000000000000000000000000000000000000081526004016113fb906129dc565b60405180910390fd5b8060066000848152602001908152602001600020908051906020019061142b929190611920565b505050565b600073ffffffffffffffffffffffffffffffffffffffff168273ffffffffffffffffffffffffffffffffffffffff1614156114a0576040517f08c379a000000000000000000000000000000000000000000000000000000000815260040161149790612a48565b60405180910390fd5b6114a981610cc3565b156114e9576040517f08c379a00000000000000000000000000000000000000000000000000000000081526004016114e090612ab4565b60405180910390fd5b6114f56000838361160a565b6001600360008473ffffffffffffffffffffffffffffffffffffffff1673ffffffffffffffffffffffffffffffffffffffff16815260200190815260200160002060008282546115459190612784565b92505081905550816002600083815260200190815260200160002060006101000a81548173ffffffffffffffffffffffffffffffffffffffff021916908373ffffffffffffffffffffffffffffffffffffffff160217905550808273ffffffffffffffffffffffffffffffffffffffff16600073ffffffffffffffffffffffffffffffffffffffff167fddf252ad1be2c89b69c2b068fc378daa952ba7f163c4a11628f55a4df523b3ef60405160405180910390a46116066000838361160f565b5050565b505050565b505050565b60006116358473ffffffffffffffffffffffffffffffffffffffff166118fd565b1561178f578373ffffffffffffffffffffffffffffffffffffffff1663150b7a0261165e610d2f565b8786866040518563ffffffff1660e01b81526004016116809493929190612b29565b6020604051808303816000875af19250505080156116bc57506040513d601f19601f820116820180604052508101906116b99190612b8a565b60015b61173f573d80600081146116ec576040519150601f19603f3d011682016040523d82523d6000602084013e6116f1565b606091505b50600081511415611737576040517f08c379a000000000000000000000000000000000000000000000000000000000815260040161172e906128b8565b60405180910390fd5b805181602001fd5b63150b7a0260e01b7bffffffffffffffffffffffffffffffffffffffffffffffffffffffff1916817bffffffffffffffffffffffffffffffffffffffffffffffffffffffff191614915050611794565b600190505b949350505050565b606060008214156117e4576040518060400160405280600181526020017f300000000000000000000000000000000000000000000000000000000000000081525090506118f8565b600082905060005b600082146118165780806117ff90612bb7565b915050600a8261180f9190612c2f565b91506117ec565b60008167ffffffffffffffff81111561183257611831611d98565b5b6040519080825280601f01601f1916602001820160405280156118645781602001600182028036833780820191505090505b5090505b600085146118f15760018261187d9190612750565b9150600a8561188c9190612c60565b60306118989190612784565b60f81b8183815181106118ae576118ad612c91565b5b60200101907effffffffffffffffffffffffffffffffffffffffffffffffffffffffffffff1916908160001a905350600a856118ea9190612c2f565b9450611868565b8093505050505b919050565b6000808273ffffffffffffffffffffffffffffffffffffffff163b119050919050565b82805461192c906120b2565b90600052602060002090601f01602090048101928261194e5760008555611995565b82601f1061196757805160ff1916838001178555611995565b82800160010185558215611995579182015b82811115611994578251825591602001919060010190611979565b5b5090506119a291906119a6565b5090565b5b808211156119bf5760008160009055506001016119a7565b5090565b6000604051905090565b600080fd5b600080fd5b60007fffffffff0000000000000000000000000000000000000000000000000000000082169050919050565b611a0c816119d7565b8114611a1757600080fd5b50565b600081359050611a2981611a03565b92915050565b600060208284031215611a4557611a446119cd565b5b6000611a5384828501611a1a565b91505092915050565b60008115159050919050565b611a7181611a5c565b82525050565b6000602082019050611a8c6000830184611a68565b92915050565b600081519050919050565b600082825260208201905092915050565b60005b83811015611acc578082015181840152602081019050611ab1565b83811115611adb576000848401525b50505050565b6000601f19601f8301169050919050565b6000611afd82611a92565b611b078185611a9d565b9350611b17818560208601611aae565b611b2081611ae1565b840191505092915050565b60006020820190508181036000830152611b458184611af2565b905092915050565b6000819050919050565b611b6081611b4d565b8114611b6b57600080fd5b50565b600081359050611b7d81611b57565b92915050565b600060208284031215611b9957611b986119cd565b5b6000611ba784828501611b6e565b91505092915050565b600073ffffffffffffffffffffffffffffffffffffffff82169050919050565b6000611bdb82611bb0565b9050919050565b611beb81611bd0565b82525050565b6000602082019050611c066000830184611be2565b92915050565b611c1581611bd0565b8114611c2057600080fd5b50565b600081359050611c3281611c0c565b92915050565b60008060408385031215611c4f57611c4e6119cd565b5b6000611c5d85828601611c23565b9250506020611c6e85828601611b6e565b9150509250929050565b600080600060608486031215611c9157611c906119cd565b5b6000611c9f86828701611c23565b9350506020611cb086828701611c23565b9250506040611cc186828701611b6e565b9150509250925092565b600060208284031215611ce157611ce06119cd565b5b6000611cef84828501611c23565b91505092915050565b611d0181611b4d565b82525050565b6000602082019050611d1c6000830184611cf8565b92915050565b611d2b81611a5c565b8114611d3657600080fd5b50565b600081359050611d4881611d22565b92915050565b60008060408385031215611d6557611d646119cd565b5b6000611d7385828601611c23565b9250506020611d8485828601611d39565b9150509250929050565b600080fd5b600080fd5b7f4e487b7100000000000000000000000000000000000000000000000000000000600052604160045260246000fd5b611dd082611ae1565b810181811067ffffffffffffffff82111715611def57611dee611d98565b5b80604052505050565b6000611e026119c3565b9050611e0e8282611dc7565b919050565b600067ffffffffffffffff821115611e2e57611e2d611d98565b5b611e3782611ae1565b9050602081019050919050565b82818337600083830152505050565b6000611e66611e6184611e13565b611df8565b905082815260208101848484011115611e8257611e81611d93565b5b611e8d848285611e44565b509392505050565b600082601f830112611eaa57611ea9611d8e565b5b8135611eba848260208601611e53565b91505092915050565b60008060008060808587031215611edd57611edc6119cd565b5b6000611eeb87828801611c23565b9450506020611efc87828801611c23565b9350506040611f0d87828801611b6e565b925050606085013567ffffffffffffffff811115611f2e57611f2d6119d2565b5b611f3a87828801611e95565b91505092959194509250565b600067ffffffffffffffff821115611f6157611f60611d98565b5b611f6a82611ae1565b9050602081019050919050565b6000611f8a611f8584611f46565b611df8565b905082815260208101848484011115611fa657611fa5611d93565b5b611fb1848285611e44565b509392505050565b600082601f830112611fce57611fcd611d8e565b5b8135611fde848260208601611f77565b91505092915050565b60008060408385031215611ffe57611ffd6119cd565b5b600061200c85828601611b6e565b925050602083013567ffffffffffffffff81111561202d5761202c6119d2565b5b61203985828601611fb9565b9150509250929050565b6000806040838503121561205a576120596119cd565b5b600061206885828601611c23565b925050602061207985828601611c23565b9150509250929050565b7f4e487b7100000000000000000000000000000000000000000000000000000000600052602260045260246000fd5b600060028204905060018216806120ca57607f821691505b602082108114156120de576120dd612083565b5b50919050565b7f4552433732313a20617070726f76656420717565727920666f72206e6f6e657860008201527f697374656e7420746f6b656e0000000000000000000000000000000000000000602082015250565b6000612140602c83611a9d565b915061214b826120e4565b604082019050919050565b6000602082019050818103600083015261216f81612133565b9050919050565b7f4552433732313a20617070726f76616c20746f2063757272656e74206f776e6560008201527f7200000000000000000000000000000000000000000000000000000000000000602082015250565b60006121d2602183611a9d565b91506121dd82612176565b604082019050919050565b60006020820190508181036000830152612201816121c5565b9050919050565b7f4552433732313a20617070726f76652063616c6c6572206973206e6f74206f7760008201527f6e6572206e6f7220617070726f76656420666f7220616c6c0000000000000000602082015250565b6000612264603883611a9d565b915061226f82612208565b604082019050919050565b6000602082019050818103600083015261229381612257565b9050919050565b7f4552433732313a207472616e736665722063616c6c6572206973206e6f74206f60008201527f776e6572206e6f7220617070726f766564000000000000000000000000000000602082015250565b60006122f6603183611a9d565b91506123018261229a565b604082019050919050565b60006020820190508181036000830152612325816122e9565b9050919050565b7f4552433732313a206f776e657220717565727920666f72206e6f6e657869737460008201527f656e7420746f6b656e0000000000000000000000000000000000000000000000602082015250565b6000612388602983611a9d565b91506123938261232c565b604082019050919050565b600060208201905081810360008301526123b78161237b565b9050919050565b7f4552433732313a2062616c616e636520717565727920666f7220746865207a6560008201527f726f206164647265737300000000000000000000000000000000000000000000602082015250565b600061241a602a83611a9d565b9150612425826123be565b604082019050919050565b600060208201905081810360008301526124498161240d565b9050919050565b7f45524337323155524953746f726167653a2055524920717565727920666f722060008201527f6e6f6e6578697374656e7420746f6b656e000000000000000000000000000000602082015250565b60006124ac603183611a9d565b91506124b782612450565b604082019050919050565b600060208201905081810360008301526124db8161249f565b9050919050565b600081905092915050565b60006124f882611a92565b61250281856124e2565b9350612512818560208601611aae565b80840191505092915050565b600061252a82856124ed565b915061253682846124ed565b91508190509392505050565b60006040820190506125576000830185611be2565b6125646020830184611cf8565b9392505050565b7f4552433732313a206f70657261746f7220717565727920666f72206e6f6e657860008201527f697374656e7420746f6b656e0000000000000000000000000000000000000000602082015250565b60006125c7602c83611a9d565b91506125d28261256b565b604082019050919050565b600060208201905081810360008301526125f6816125ba565b9050919050565b7f4552433732313a207472616e736665722066726f6d20696e636f72726563742060008201527f6f776e6572000000000000000000000000000000000000000000000000000000602082015250565b6000612659602583611a9d565b9150612664826125fd565b604082019050919050565b600060208201905081810360008301526126888161264c565b9050919050565b7f4552433732313a207472616e7366657220746f20746865207a65726f2061646460008201527f7265737300000000000000000000000000000000000000000000000000000000602082015250565b60006126eb602483611a9d565b91506126f68261268f565b604082019050919050565b6000602082019050818103600083015261271a816126de565b9050919050565b7f4e487b7100000000000000000000000000000000000000000000000000000000600052601160045260246000fd5b600061275b82611b4d565b915061276683611b4d565b92508282101561277957612778612721565b5b828203905092915050565b600061278f82611b4d565b915061279a83611b4d565b9250827fffffffffffffffffffffffffffffffffffffffffffffffffffffffffffffffff038211156127cf576127ce612721565b5b828201905092915050565b7f4552433732313a20617070726f766520746f2063616c6c657200000000000000600082015250565b6000612810601983611a9d565b915061281b826127da565b602082019050919050565b6000602082019050818103600083015261283f81612803565b9050919050565b7f4552433732313a207472616e7366657220746f206e6f6e20455243373231526560008201527f63656976657220696d706c656d656e7465720000000000000000000000000000602082015250565b60006128a2603283611a9d565b91506128ad82612846565b604082019050919050565b600060208201905081810360008301526128d181612895565b9050919050565b7f4552433732314d657461646174613a2055524920717565727920666f72206e6f60008201527f6e6578697374656e7420746f6b656e0000000000000000000000000000000000602082015250565b6000612934602f83611a9d565b915061293f826128d8565b604082019050919050565b6000602082019050818103600083015261296381612927565b9050919050565b7f45524337323155524953746f726167653a2055524920736574206f66206e6f6e60008201527f6578697374656e7420746f6b656e000000000000000000000000000000000000602082015250565b60006129c6602e83611a9d565b91506129d18261296a565b604082019050919050565b600060208201905081810360008301526129f5816129b9565b9050919050565b7f4552433732313a206d696e7420746f20746865207a65726f2061646472657373600082015250565b6000612a32602083611a9d565b9150612a3d826129fc565b602082019050919050565b60006020820190508181036000830152612a6181612a25565b9050919050565b7f4552433732313a20746f6b656e20616c7265616479206d696e74656400000000600082015250565b6000612a9e601c83611a9d565b9150612aa982612a68565b602082019050919050565b60006020820190508181036000830152612acd81612a91565b9050919050565b600081519050919050565b600082825260208201905092915050565b6000612afb82612ad4565b612b058185612adf565b9350612b15818560208601611aae565b612b1e81611ae1565b840191505092915050565b6000608082019050612b3e6000830187611be2565b612b4b6020830186611be2565b612b586040830185611cf8565b8181036060830152612b6a8184612af0565b905095945050505050565b600081519050612b8481611a03565b92915050565b600060208284031215612ba057612b9f6119cd565b5b6000612bae84828501612b75565b91505092915050565b6000612bc282611b4d565b91507fffffffffffffffffffffffffffffffffffffffffffffffffffffffffffffffff821415612bf557612bf4612721565b5b600182019050919050565b7f4e487b7100000000000000000000000000000000000000000000000000000000600052601260045260246000fd5b6000612c3a82611b4d565b9150612c4583611b4d565b925082612c5557612c54612c00565b5b828204905092915050565b6000612c6b82611b4d565b9150612c7683611b4d565b925082612c8657612c85612c00565b5b828206905092915050565b7f4e487b7100000000000000000000000000000000000000000000000000000000600052603260045260246000fdfea26469706673582212201a4ef762f8c37b5893226c59f94137aff16923efd028e65bc078f60a1ff6587464736f6c634300080b0033",
  "immutableReferences": {},
  "source": "// SPDX-License-Identifier: MIT\npragma solidity >=0.4.22 <0.9.0;\n\nimport \"@openzeppelin/contracts/token/ERC721/extensions/ERC721URIStorage.sol\";\n\n/**\n * @title Repository of ERC721 Deeds\n * This contract contains the list of deeds registered by users.\n */\ncontract DeedRepository is ERC721URIStorage {\n    event DeedRegistered(address _by, uint256 _tokenId);\n\n    constructor(string memory _name, string memory _symbol)\n        ERC721(_name, _symbol)\n    {}\n\n    function registerDeed(uint256 _tokenId, string memory _uri) public {\n        _mint(msg.sender, _tokenId);\n        bool result = addDeedMetadata(_tokenId, _uri);\n        if (result) {\n            emit DeedRegistered(msg.sender, _tokenId);\n        } else {\n            revert();\n        }\n    }\n\n    function addDeedMetadata(uint256 _tokenId, string memory _uri)\n        public\n        returns (bool)\n    {\n        _setTokenURI(_tokenId, _uri);\n        return true;\n    }\n\n    /**\n     * @dev Disallow payments to this contract directly\n     */\n    receive() external payable {\n        revert();\n    }\n}\n",
  "sourcePath": "/Users/mayckonbarbosadasilva/Desktop/desktop/mayckon/solidity/Auction/contracts/DeedRepository.sol",
  "compiler": {
    "name": "solc",
    "version": "0.8.11+commit.d7f03943.Emscripten.clang"
  },
  "schemaVersion": "3.4.4",
  "updatedAt": "2022-02-23T13:44:58.226Z",
  "devdoc": {
    "kind": "dev",
    "methods": {
      "approve(address,uint256)": {
        "details": "See {IERC721-approve}."
      },
      "balanceOf(address)": {
        "details": "See {IERC721-balanceOf}."
      },
      "getApproved(uint256)": {
        "details": "See {IERC721-getApproved}."
      },
      "isApprovedForAll(address,address)": {
        "details": "See {IERC721-isApprovedForAll}."
      },
      "name()": {
        "details": "See {IERC721Metadata-name}."
      },
      "ownerOf(uint256)": {
        "details": "See {IERC721-ownerOf}."
      },
      "safeTransferFrom(address,address,uint256)": {
        "details": "See {IERC721-safeTransferFrom}."
      },
      "safeTransferFrom(address,address,uint256,bytes)": {
        "details": "See {IERC721-safeTransferFrom}."
      },
      "setApprovalForAll(address,bool)": {
        "details": "See {IERC721-setApprovalForAll}."
      },
      "supportsInterface(bytes4)": {
        "details": "See {IERC165-supportsInterface}."
      },
      "symbol()": {
        "details": "See {IERC721Metadata-symbol}."
      },
      "tokenURI(uint256)": {
        "details": "See {IERC721Metadata-tokenURI}."
      },
      "transferFrom(address,address,uint256)": {
        "details": "See {IERC721-transferFrom}."
      }
    },
    "title": "Repository of ERC721 Deeds This contract contains the list of deeds registered by users.",
    "version": 1
  },
  "userdoc": {
    "kind": "user",
    "methods": {},
    "version": 1
  }
}